{
  "contractName": "ShoeTest",
  "abi": [
    {
      "inputs": [],
      "stateMutability": "nonpayable",
      "type": "constructor"
    },
    {
      "inputs": [
        {
          "internalType": "address",
          "name": "sender",
          "type": "address"
        },
        {
          "internalType": "uint256",
          "name": "tokenId",
          "type": "uint256"
        },
        {
          "internalType": "address",
          "name": "owner",
          "type": "address"
        }
      ],
      "name": "ERC721IncorrectOwner",
      "type": "error"
    },
    {
      "inputs": [
        {
          "internalType": "address",
          "name": "operator",
          "type": "address"
        },
        {
          "internalType": "uint256",
          "name": "tokenId",
          "type": "uint256"
        }
      ],
      "name": "ERC721InsufficientApproval",
      "type": "error"
    },
    {
      "inputs": [
        {
          "internalType": "address",
          "name": "approver",
          "type": "address"
        }
      ],
      "name": "ERC721InvalidApprover",
      "type": "error"
    },
    {
      "inputs": [
        {
          "internalType": "address",
          "name": "operator",
          "type": "address"
        }
      ],
      "name": "ERC721InvalidOperator",
      "type": "error"
    },
    {
      "inputs": [
        {
          "internalType": "address",
          "name": "owner",
          "type": "address"
        }
      ],
      "name": "ERC721InvalidOwner",
      "type": "error"
    },
    {
      "inputs": [
        {
          "internalType": "address",
          "name": "receiver",
          "type": "address"
        }
      ],
      "name": "ERC721InvalidReceiver",
      "type": "error"
    },
    {
      "inputs": [
        {
          "internalType": "address",
          "name": "sender",
          "type": "address"
        }
      ],
      "name": "ERC721InvalidSender",
      "type": "error"
    },
    {
      "inputs": [
        {
          "internalType": "uint256",
          "name": "tokenId",
          "type": "uint256"
        }
      ],
      "name": "ERC721NonexistentToken",
      "type": "error"
    },
    {
      "inputs": [
        {
          "internalType": "address",
          "name": "owner",
          "type": "address"
        }
      ],
      "name": "OwnableInvalidOwner",
      "type": "error"
    },
    {
      "inputs": [
        {
          "internalType": "address",
          "name": "account",
          "type": "address"
        }
      ],
      "name": "OwnableUnauthorizedAccount",
      "type": "error"
    },
    {
      "anonymous": false,
      "inputs": [
        {
          "indexed": true,
          "internalType": "address",
          "name": "owner",
          "type": "address"
        },
        {
          "indexed": true,
          "internalType": "address",
          "name": "approved",
          "type": "address"
        },
        {
          "indexed": true,
          "internalType": "uint256",
          "name": "tokenId",
          "type": "uint256"
        }
      ],
      "name": "Approval",
      "type": "event"
    },
    {
      "anonymous": false,
      "inputs": [
        {
          "indexed": true,
          "internalType": "address",
          "name": "owner",
          "type": "address"
        },
        {
          "indexed": true,
          "internalType": "address",
          "name": "operator",
          "type": "address"
        },
        {
          "indexed": false,
          "internalType": "bool",
          "name": "approved",
          "type": "bool"
        }
      ],
      "name": "ApprovalForAll",
      "type": "event"
    },
    {
      "anonymous": false,
      "inputs": [
        {
          "indexed": false,
          "internalType": "uint256",
          "name": "_fromTokenId",
          "type": "uint256"
        },
        {
          "indexed": false,
          "internalType": "uint256",
          "name": "_toTokenId",
          "type": "uint256"
        }
      ],
      "name": "BatchMetadataUpdate",
      "type": "event"
    },
    {
      "anonymous": false,
      "inputs": [
        {
          "indexed": false,
          "internalType": "uint256",
          "name": "_tokenId",
          "type": "uint256"
        }
      ],
      "name": "MetadataUpdate",
      "type": "event"
    },
    {
      "anonymous": false,
      "inputs": [
        {
          "indexed": true,
          "internalType": "address",
          "name": "previousOwner",
          "type": "address"
        },
        {
          "indexed": true,
          "internalType": "address",
          "name": "newOwner",
          "type": "address"
        }
      ],
      "name": "OwnershipTransferred",
      "type": "event"
    },
    {
      "anonymous": false,
      "inputs": [
        {
          "indexed": true,
          "internalType": "address",
          "name": "from",
          "type": "address"
        },
        {
          "indexed": true,
          "internalType": "address",
          "name": "to",
          "type": "address"
        },
        {
          "indexed": true,
          "internalType": "uint256",
          "name": "tokenId",
          "type": "uint256"
        }
      ],
      "name": "Transfer",
      "type": "event"
    },
    {
      "inputs": [
        {
          "internalType": "address",
          "name": "to",
          "type": "address"
        },
        {
          "internalType": "uint256",
          "name": "tokenId",
          "type": "uint256"
        }
      ],
      "name": "approve",
      "outputs": [],
      "stateMutability": "nonpayable",
      "type": "function"
    },
    {
      "inputs": [
        {
          "internalType": "address",
          "name": "owner",
          "type": "address"
        }
      ],
      "name": "balanceOf",
      "outputs": [
        {
          "internalType": "uint256",
          "name": "",
          "type": "uint256"
        }
      ],
      "stateMutability": "view",
      "type": "function",
      "constant": true
    },
    {
      "inputs": [
        {
          "internalType": "uint256",
          "name": "tokenId",
          "type": "uint256"
        }
      ],
      "name": "getApproved",
      "outputs": [
        {
          "internalType": "address",
          "name": "",
          "type": "address"
        }
      ],
      "stateMutability": "view",
      "type": "function",
      "constant": true
    },
    {
      "inputs": [
        {
          "internalType": "address",
          "name": "owner",
          "type": "address"
        },
        {
          "internalType": "address",
          "name": "operator",
          "type": "address"
        }
      ],
      "name": "isApprovedForAll",
      "outputs": [
        {
          "internalType": "bool",
          "name": "",
          "type": "bool"
        }
      ],
      "stateMutability": "view",
      "type": "function",
      "constant": true
    },
    {
      "inputs": [],
      "name": "name",
      "outputs": [
        {
          "internalType": "string",
          "name": "",
          "type": "string"
        }
      ],
      "stateMutability": "view",
      "type": "function",
      "constant": true
    },
    {
      "inputs": [],
      "name": "owner",
      "outputs": [
        {
          "internalType": "address",
          "name": "",
          "type": "address"
        }
      ],
      "stateMutability": "view",
      "type": "function",
      "constant": true
    },
    {
      "inputs": [
        {
          "internalType": "uint256",
          "name": "tokenId",
          "type": "uint256"
        }
      ],
      "name": "ownerOf",
      "outputs": [
        {
          "internalType": "address",
          "name": "",
          "type": "address"
        }
      ],
      "stateMutability": "view",
      "type": "function",
      "constant": true
    },
    {
      "inputs": [],
      "name": "renounceOwnership",
      "outputs": [],
      "stateMutability": "nonpayable",
      "type": "function"
    },
    {
      "inputs": [
        {
          "internalType": "address",
          "name": "from",
          "type": "address"
        },
        {
          "internalType": "address",
          "name": "to",
          "type": "address"
        },
        {
          "internalType": "uint256",
          "name": "tokenId",
          "type": "uint256"
        }
      ],
      "name": "safeTransferFrom",
      "outputs": [],
      "stateMutability": "nonpayable",
      "type": "function"
    },
    {
      "inputs": [
        {
          "internalType": "address",
          "name": "from",
          "type": "address"
        },
        {
          "internalType": "address",
          "name": "to",
          "type": "address"
        },
        {
          "internalType": "uint256",
          "name": "tokenId",
          "type": "uint256"
        },
        {
          "internalType": "bytes",
          "name": "data",
          "type": "bytes"
        }
      ],
      "name": "safeTransferFrom",
      "outputs": [],
      "stateMutability": "nonpayable",
      "type": "function"
    },
    {
      "inputs": [
        {
          "internalType": "address",
          "name": "operator",
          "type": "address"
        },
        {
          "internalType": "bool",
          "name": "approved",
          "type": "bool"
        }
      ],
      "name": "setApprovalForAll",
      "outputs": [],
      "stateMutability": "nonpayable",
      "type": "function"
    },
    {
      "inputs": [],
      "name": "symbol",
      "outputs": [
        {
          "internalType": "string",
          "name": "",
          "type": "string"
        }
      ],
      "stateMutability": "view",
      "type": "function",
      "constant": true
    },
    {
      "inputs": [
        {
          "internalType": "address",
          "name": "from",
          "type": "address"
        },
        {
          "internalType": "address",
          "name": "to",
          "type": "address"
        },
        {
          "internalType": "uint256",
          "name": "tokenId",
          "type": "uint256"
        }
      ],
      "name": "transferFrom",
      "outputs": [],
      "stateMutability": "nonpayable",
      "type": "function"
    },
    {
      "inputs": [
        {
          "internalType": "address",
          "name": "newOwner",
          "type": "address"
        }
      ],
      "name": "transferOwnership",
      "outputs": [],
      "stateMutability": "nonpayable",
      "type": "function"
    },
    {
      "inputs": [],
      "name": "buyToken",
      "outputs": [],
      "stateMutability": "payable",
      "type": "function",
      "payable": true
    },
    {
      "inputs": [
        {
          "internalType": "address",
          "name": "to",
          "type": "address"
        },
        {
          "internalType": "string",
          "name": "uri",
          "type": "string"
        }
      ],
      "name": "safeMint",
      "outputs": [],
      "stateMutability": "nonpayable",
      "type": "function"
    },
    {
      "inputs": [
        {
          "internalType": "uint256",
          "name": "tokenId",
          "type": "uint256"
        }
      ],
      "name": "tokenURI",
      "outputs": [
        {
          "internalType": "string",
          "name": "",
          "type": "string"
        }
      ],
      "stateMutability": "view",
      "type": "function",
      "constant": true
    },
    {
      "inputs": [
        {
          "internalType": "bytes4",
          "name": "interfaceId",
          "type": "bytes4"
        }
      ],
      "name": "supportsInterface",
      "outputs": [
        {
          "internalType": "bool",
          "name": "",
          "type": "bool"
        }
      ],
      "stateMutability": "view",
      "type": "function",
      "constant": true
    }
  ],
  "bytecode": "0x608060405234801562000010575f80fd5b50336040518060400160405280600881526020017f53686f65546573740000000000000000000000000000000000000000000000008152506040518060400160405280600381526020017f53544b0000000000000000000000000000000000000000000000000000000000815250815f90816200008e919062000455565b508060019081620000a0919062000455565b5050505f73ffffffffffffffffffffffffffffffffffffffff168173ffffffffffffffffffffffffffffffffffffffff160362000116575f6040517f1e4fbdf70000000000000000000000000000000000000000000000000000000081526004016200010d91906200057c565b60405180910390fd5b62000127816200012e60201b60201c565b5062000597565b5f60075f9054906101000a900473ffffffffffffffffffffffffffffffffffffffff1690508160075f6101000a81548173ffffffffffffffffffffffffffffffffffffffff021916908373ffffffffffffffffffffffffffffffffffffffff1602179055508173ffffffffffffffffffffffffffffffffffffffff168173ffffffffffffffffffffffffffffffffffffffff167f8be0079c531659141344cd1fd0a4f28419497f9722a3daafe3b4186f6b6457e060405160405180910390a35050565b5f81519050919050565b7f4e487b71000000000000000000000000000000000000000000000000000000005f52604160045260245ffd5b7f4e487b71000000000000000000000000000000000000000000000000000000005f52602260045260245ffd5b5f60028204905060018216806200026d57607f821691505b60208210810362000283576200028262000228565b5b50919050565b5f819050815f5260205f209050919050565b5f6020601f8301049050919050565b5f82821b905092915050565b5f60088302620002e77fffffffffffffffffffffffffffffffffffffffffffffffffffffffffffffffff82620002aa565b620002f38683620002aa565b95508019841693508086168417925050509392505050565b5f819050919050565b5f819050919050565b5f6200033d6200033762000331846200030b565b62000314565b6200030b565b9050919050565b5f819050919050565b62000358836200031d565b62000370620003678262000344565b848454620002b6565b825550505050565b5f90565b6200038662000378565b620003938184846200034d565b505050565b5b81811015620003ba57620003ae5f826200037c565b60018101905062000399565b5050565b601f8211156200040957620003d38162000289565b620003de846200029b565b81016020851015620003ee578190505b62000406620003fd856200029b565b83018262000398565b50505b505050565b5f82821c905092915050565b5f6200042b5f19846008026200040e565b1980831691505092915050565b5f6200044583836200041a565b9150826002028217905092915050565b6200046082620001f1565b67ffffffffffffffff8111156200047c576200047b620001fb565b5b62000488825462000255565b62000495828285620003be565b5f60209050601f831160018114620004cb575f8415620004b6578287015190505b620004c2858262000438565b86555062000531565b601f198416620004db8662000289565b5f5b828110156200050457848901518255600182019150602085019450602081019050620004dd565b8683101562000524578489015162000520601f8916826200041a565b8355505b6001600288020188555050505b505050505050565b5f73ffffffffffffffffffffffffffffffffffffffff82169050919050565b5f620005648262000539565b9050919050565b620005768162000558565b82525050565b5f602082019050620005915f8301846200056b565b92915050565b61291480620005a55f395ff3fe608060405260043610610108575f3560e01c80638da5cb5b11610094578063b88d4fde11610063578063b88d4fde1461033a578063c87b56dd14610362578063d204c45e1461039e578063e985e9c5146103c6578063f2fde38b1461040257610108565b80638da5cb5b146102b457806395d89b41146102de578063a22cb46514610308578063a48217191461033057610108565b806323b872dd116100db57806323b872dd146101d657806342842e0e146101fe5780636352211e1461022657806370a0823114610262578063715018a61461029e57610108565b806301ffc9a71461010c57806306fdde0314610148578063081812fc14610172578063095ea7b3146101ae575b5f80fd5b348015610117575f80fd5b50610132600480360381019061012d9190611ce8565b61042a565b60405161013f9190611d2d565b60405180910390f35b348015610153575f80fd5b5061015c61043b565b6040516101699190611dd0565b60405180910390f35b34801561017d575f80fd5b5061019860048036038101906101939190611e23565b6104ca565b6040516101a59190611e8d565b60405180910390f35b3480156101b9575f80fd5b506101d460048036038101906101cf9190611ed0565b6104e5565b005b3480156101e1575f80fd5b506101fc60048036038101906101f79190611f0e565b6104fb565b005b348015610209575f80fd5b50610224600480360381019061021f9190611f0e565b6105fa565b005b348015610231575f80fd5b5061024c60048036038101906102479190611e23565b610619565b6040516102599190611e8d565b60405180910390f35b34801561026d575f80fd5b5061028860048036038101906102839190611f5e565b61062a565b6040516102959190611f98565b60405180910390f35b3480156102a9575f80fd5b506102b26106e0565b005b3480156102bf575f80fd5b506102c86106f3565b6040516102d59190611e8d565b60405180910390f35b3480156102e9575f80fd5b506102f261071b565b6040516102ff9190611dd0565b60405180910390f35b348015610313575f80fd5b5061032e60048036038101906103299190611fdb565b6107ab565b005b6103386107c1565b005b348015610345575f80fd5b50610360600480360381019061035b9190612145565b610880565b005b34801561036d575f80fd5b5061038860048036038101906103839190611e23565b6108a5565b6040516103959190611dd0565b60405180910390f35b3480156103a9575f80fd5b506103c460048036038101906103bf9190612263565b6108b7565b005b3480156103d1575f80fd5b506103ec60048036038101906103e791906122bd565b6108f1565b6040516103f99190611d2d565b60405180910390f35b34801561040d575f80fd5b5061042860048036038101906104239190611f5e565b61097f565b005b5f61043482610a03565b9050919050565b60605f805461044990612328565b80601f016020809104026020016040519081016040528092919081815260200182805461047590612328565b80156104c05780601f10610497576101008083540402835291602001916104c0565b820191905f5260205f20905b8154815290600101906020018083116104a357829003601f168201915b5050505050905090565b5f6104d482610a63565b506104de82610ae9565b9050919050565b6104f782826104f2610b22565b610b29565b5050565b5f73ffffffffffffffffffffffffffffffffffffffff168273ffffffffffffffffffffffffffffffffffffffff160361056b575f6040517f64a0ae920000000000000000000000000000000000000000000000000000000081526004016105629190611e8d565b60405180910390fd5b5f61057e8383610579610b22565b610b3b565b90508373ffffffffffffffffffffffffffffffffffffffff168173ffffffffffffffffffffffffffffffffffffffff16146105f4578382826040517f64283d7b0000000000000000000000000000000000000000000000000000000081526004016105eb93929190612358565b60405180910390fd5b50505050565b61061483838360405180602001604052805f815250610880565b505050565b5f61062382610a63565b9050919050565b5f8073ffffffffffffffffffffffffffffffffffffffff168273ffffffffffffffffffffffffffffffffffffffff160361069b575f6040517f89c62b640000000000000000000000000000000000000000000000000000000081526004016106929190611e8d565b60405180910390fd5b60035f8373ffffffffffffffffffffffffffffffffffffffff1673ffffffffffffffffffffffffffffffffffffffff1681526020019081526020015f20549050919050565b6106e8610d46565b6106f15f610dcd565b565b5f60075f9054906101000a900473ffffffffffffffffffffffffffffffffffffffff16905090565b60606001805461072a90612328565b80601f016020809104026020016040519081016040528092919081815260200182805461075690612328565b80156107a15780601f10610778576101008083540402835291602001916107a1565b820191905f5260205f20905b81548152906001019060200180831161078457829003601f168201915b5050505050905090565b6107bd6107b6610b22565b8383610e90565b5050565b5f60085490506108076040518060400160405280600b81526020017f676f7420686572652d2d3e0000000000000000000000000000000000000000008152508234610ff9565b67016345785d8a00008161081b91906123ba565b341461085c576040517f08c379a000000000000000000000000000000000000000000000000000000000815260040161085390612445565b60405180910390fd5b60085f81548092919061086e90612463565b919050555061087d3382611098565b50565b61088b8484846104fb565b61089f610896610b22565b858585856110b5565b50505050565b60606108b082611261565b9050919050565b6108bf610d46565b5f60085f8154809291906108d290612463565b9190505590506108e28382611098565b6108ec818361136c565b505050565b5f60055f8473ffffffffffffffffffffffffffffffffffffffff1673ffffffffffffffffffffffffffffffffffffffff1681526020019081526020015f205f8373ffffffffffffffffffffffffffffffffffffffff1673ffffffffffffffffffffffffffffffffffffffff1681526020019081526020015f205f9054906101000a900460ff16905092915050565b610987610d46565b5f73ffffffffffffffffffffffffffffffffffffffff168173ffffffffffffffffffffffffffffffffffffffff16036109f7575f6040517f1e4fbdf70000000000000000000000000000000000000000000000000000000081526004016109ee9190611e8d565b60405180910390fd5b610a0081610dcd565b50565b5f634906490660e01b7bffffffffffffffffffffffffffffffffffffffffffffffffffffffff1916827bffffffffffffffffffffffffffffffffffffffffffffffffffffffff19161480610a5c5750610a5b826113c6565b5b9050919050565b5f80610a6e836114a7565b90505f73ffffffffffffffffffffffffffffffffffffffff168173ffffffffffffffffffffffffffffffffffffffff1603610ae057826040517f7e273289000000000000000000000000000000000000000000000000000000008152600401610ad79190611f98565b60405180910390fd5b80915050919050565b5f60045f8381526020019081526020015f205f9054906101000a900473ffffffffffffffffffffffffffffffffffffffff169050919050565b5f33905090565b610b3683838360016114e0565b505050565b5f80610b46846114a7565b90505f73ffffffffffffffffffffffffffffffffffffffff168373ffffffffffffffffffffffffffffffffffffffff1614610b8757610b8681848661169f565b5b5f73ffffffffffffffffffffffffffffffffffffffff168173ffffffffffffffffffffffffffffffffffffffff1614610c1257610bc65f855f806114e0565b600160035f8373ffffffffffffffffffffffffffffffffffffffff1673ffffffffffffffffffffffffffffffffffffffff1681526020019081526020015f205f82825403925050819055505b5f73ffffffffffffffffffffffffffffffffffffffff168573ffffffffffffffffffffffffffffffffffffffff1614610c9157600160035f8773ffffffffffffffffffffffffffffffffffffffff1673ffffffffffffffffffffffffffffffffffffffff1681526020019081526020015f205f82825401925050819055505b8460025f8681526020019081526020015f205f6101000a81548173ffffffffffffffffffffffffffffffffffffffff021916908373ffffffffffffffffffffffffffffffffffffffff160217905550838573ffffffffffffffffffffffffffffffffffffffff168273ffffffffffffffffffffffffffffffffffffffff167fddf252ad1be2c89b69c2b068fc378daa952ba7f163c4a11628f55a4df523b3ef60405160405180910390a4809150509392505050565b610d4e610b22565b73ffffffffffffffffffffffffffffffffffffffff16610d6c6106f3565b73ffffffffffffffffffffffffffffffffffffffff1614610dcb57610d8f610b22565b6040517f118cdaa7000000000000000000000000000000000000000000000000000000008152600401610dc29190611e8d565b60405180910390fd5b565b5f60075f9054906101000a900473ffffffffffffffffffffffffffffffffffffffff1690508160075f6101000a81548173ffffffffffffffffffffffffffffffffffffffff021916908373ffffffffffffffffffffffffffffffffffffffff1602179055508173ffffffffffffffffffffffffffffffffffffffff168173ffffffffffffffffffffffffffffffffffffffff167f8be0079c531659141344cd1fd0a4f28419497f9722a3daafe3b4186f6b6457e060405160405180910390a35050565b5f73ffffffffffffffffffffffffffffffffffffffff168273ffffffffffffffffffffffffffffffffffffffff1603610f0057816040517f5b08ba18000000000000000000000000000000000000000000000000000000008152600401610ef79190611e8d565b60405180910390fd5b8060055f8573ffffffffffffffffffffffffffffffffffffffff1673ffffffffffffffffffffffffffffffffffffffff1681526020019081526020015f205f8473ffffffffffffffffffffffffffffffffffffffff1673ffffffffffffffffffffffffffffffffffffffff1681526020019081526020015f205f6101000a81548160ff0219169083151502179055508173ffffffffffffffffffffffffffffffffffffffff168373ffffffffffffffffffffffffffffffffffffffff167f17307eab39ab6107e8899845ad3d59bd9653f200f220920489ca2b5937696c3183604051610fec9190611d2d565b60405180910390a3505050565b611093838383604051602401611011939291906124aa565b6040516020818303038152906040527fca47c4eb000000000000000000000000000000000000000000000000000000007bffffffffffffffffffffffffffffffffffffffffffffffffffffffff19166020820180517bffffffffffffffffffffffffffffffffffffffffffffffffffffffff8381831617835250505050611762565b505050565b6110b1828260405180602001604052805f815250611785565b5050565b5f8373ffffffffffffffffffffffffffffffffffffffff163b111561125a578273ffffffffffffffffffffffffffffffffffffffff1663150b7a02868685856040518563ffffffff1660e01b81526004016111139493929190612538565b6020604051808303815f875af192505050801561114e57506040513d601f19601f8201168201806040525081019061114b9190612596565b60015b6111cf573d805f811461117c576040519150601f19603f3d011682016040523d82523d5f602084013e611181565b606091505b505f8151036111c757836040517f64a0ae920000000000000000000000000000000000000000000000000000000081526004016111be9190611e8d565b60405180910390fd5b805181602001fd5b63150b7a0260e01b7bffffffffffffffffffffffffffffffffffffffffffffffffffffffff1916817bffffffffffffffffffffffffffffffffffffffffffffffffffffffff19161461125857836040517f64a0ae9200000000000000000000000000000000000000000000000000000000815260040161124f9190611e8d565b60405180910390fd5b505b5050505050565b606061126c82610a63565b505f60065f8481526020019081526020015f20805461128a90612328565b80601f01602080910402602001604051908101604052809291908181526020018280546112b690612328565b80156113015780601f106112d857610100808354040283529160200191611301565b820191905f5260205f20905b8154815290600101906020018083116112e457829003601f168201915b505050505090505f6113116117a8565b90505f815103611325578192505050611367565b5f825111156113595780826040516020016113419291906125fb565b60405160208183030381529060405292505050611367565b611362846117e5565b925050505b919050565b8060065f8481526020019081526020015f20908161138a91906127bb565b507ff8e1a15aba9398e019f0b49df1a4fde98ee17ae345cb5f6b5e2c27f5033e8ce7826040516113ba9190611f98565b60405180910390a15050565b5f7f80ac58cd000000000000000000000000000000000000000000000000000000007bffffffffffffffffffffffffffffffffffffffffffffffffffffffff1916827bffffffffffffffffffffffffffffffffffffffffffffffffffffffff1916148061149057507f5b5e139f000000000000000000000000000000000000000000000000000000007bffffffffffffffffffffffffffffffffffffffffffffffffffffffff1916827bffffffffffffffffffffffffffffffffffffffffffffffffffffffff1916145b806114a0575061149f8261184b565b5b9050919050565b5f60025f8381526020019081526020015f205f9054906101000a900473ffffffffffffffffffffffffffffffffffffffff169050919050565b808061151857505f73ffffffffffffffffffffffffffffffffffffffff168273ffffffffffffffffffffffffffffffffffffffff1614155b1561164a575f61152784610a63565b90505f73ffffffffffffffffffffffffffffffffffffffff168373ffffffffffffffffffffffffffffffffffffffff161415801561159157508273ffffffffffffffffffffffffffffffffffffffff168173ffffffffffffffffffffffffffffffffffffffff1614155b80156115a457506115a281846108f1565b155b156115e657826040517fa9fbf51f0000000000000000000000000000000000000000000000000000000081526004016115dd9190611e8d565b60405180910390fd5b811561164857838573ffffffffffffffffffffffffffffffffffffffff168273ffffffffffffffffffffffffffffffffffffffff167f8c5be1e5ebec7d5bd14f71427d1e84f3dd0314c0f7b2291e5b200ac8c7c3b92560405160405180910390a45b505b8360045f8581526020019081526020015f205f6101000a81548173ffffffffffffffffffffffffffffffffffffffff021916908373ffffffffffffffffffffffffffffffffffffffff16021790555050505050565b6116aa8383836118b4565b61175d575f73ffffffffffffffffffffffffffffffffffffffff168373ffffffffffffffffffffffffffffffffffffffff160361171e57806040517f7e2732890000000000000000000000000000000000000000000000000000000081526004016117159190611f98565b60405180910390fd5b81816040517f177e802f00000000000000000000000000000000000000000000000000000000815260040161175492919061288a565b60405180910390fd5b505050565b5f6a636f6e736f6c652e6c6f6790508151602083015f808383865afa5050505050565b61178f8383611974565b6117a361179a610b22565b5f8585856110b5565b505050565b60606040518060400160405280601d81526020017f68747470733a2f2f7777772e6a736f6e6b65657065722e636f6d2f622f000000815250905090565b60606117f082610a63565b505f6117fa6117a8565b90505f8151116118185760405180602001604052805f815250611843565b8061182284611a67565b6040516020016118339291906125fb565b6040516020818303038152906040525b915050919050565b5f7f01ffc9a7000000000000000000000000000000000000000000000000000000007bffffffffffffffffffffffffffffffffffffffffffffffffffffffff1916827bffffffffffffffffffffffffffffffffffffffffffffffffffffffff1916149050919050565b5f8073ffffffffffffffffffffffffffffffffffffffff168373ffffffffffffffffffffffffffffffffffffffff161415801561196b57508273ffffffffffffffffffffffffffffffffffffffff168473ffffffffffffffffffffffffffffffffffffffff16148061192c575061192b84846108f1565b5b8061196a57508273ffffffffffffffffffffffffffffffffffffffff1661195283610ae9565b73ffffffffffffffffffffffffffffffffffffffff16145b5b90509392505050565b5f73ffffffffffffffffffffffffffffffffffffffff168273ffffffffffffffffffffffffffffffffffffffff16036119e4575f6040517f64a0ae920000000000000000000000000000000000000000000000000000000081526004016119db9190611e8d565b60405180910390fd5b5f6119f083835f610b3b565b90505f73ffffffffffffffffffffffffffffffffffffffff168173ffffffffffffffffffffffffffffffffffffffff1614611a62575f6040517f73c6ac6e000000000000000000000000000000000000000000000000000000008152600401611a599190611e8d565b60405180910390fd5b505050565b60605f6001611a7584611b31565b0190505f8167ffffffffffffffff811115611a9357611a92612021565b5b6040519080825280601f01601f191660200182016040528015611ac55781602001600182028036833780820191505090505b5090505f82602001820190505b600115611b26578080600190039150507f3031323334353637383961626364656600000000000000000000000000000000600a86061a8153600a8581611b1b57611b1a6128b1565b5b0494505f8503611ad2575b819350505050919050565b5f805f90507a184f03e93ff9f4daa797ed6e38ed64bf6a1f0100000000000000008310611b8d577a184f03e93ff9f4daa797ed6e38ed64bf6a1f0100000000000000008381611b8357611b826128b1565b5b0492506040810190505b6d04ee2d6d415b85acef81000000008310611bca576d04ee2d6d415b85acef81000000008381611bc057611bbf6128b1565b5b0492506020810190505b662386f26fc100008310611bf957662386f26fc100008381611bef57611bee6128b1565b5b0492506010810190505b6305f5e1008310611c22576305f5e1008381611c1857611c176128b1565b5b0492506008810190505b6127108310611c47576127108381611c3d57611c3c6128b1565b5b0492506004810190505b60648310611c6a5760648381611c6057611c5f6128b1565b5b0492506002810190505b600a8310611c79576001810190505b80915050919050565b5f604051905090565b5f80fd5b5f80fd5b5f7fffffffff0000000000000000000000000000000000000000000000000000000082169050919050565b611cc781611c93565b8114611cd1575f80fd5b50565b5f81359050611ce281611cbe565b92915050565b5f60208284031215611cfd57611cfc611c8b565b5b5f611d0a84828501611cd4565b91505092915050565b5f8115159050919050565b611d2781611d13565b82525050565b5f602082019050611d405f830184611d1e565b92915050565b5f81519050919050565b5f82825260208201905092915050565b5f5b83811015611d7d578082015181840152602081019050611d62565b5f8484015250505050565b5f601f19601f8301169050919050565b5f611da282611d46565b611dac8185611d50565b9350611dbc818560208601611d60565b611dc581611d88565b840191505092915050565b5f6020820190508181035f830152611de88184611d98565b905092915050565b5f819050919050565b611e0281611df0565b8114611e0c575f80fd5b50565b5f81359050611e1d81611df9565b92915050565b5f60208284031215611e3857611e37611c8b565b5b5f611e4584828501611e0f565b91505092915050565b5f73ffffffffffffffffffffffffffffffffffffffff82169050919050565b5f611e7782611e4e565b9050919050565b611e8781611e6d565b82525050565b5f602082019050611ea05f830184611e7e565b92915050565b611eaf81611e6d565b8114611eb9575f80fd5b50565b5f81359050611eca81611ea6565b92915050565b5f8060408385031215611ee657611ee5611c8b565b5b5f611ef385828601611ebc565b9250506020611f0485828601611e0f565b9150509250929050565b5f805f60608486031215611f2557611f24611c8b565b5b5f611f3286828701611ebc565b9350506020611f4386828701611ebc565b9250506040611f5486828701611e0f565b9150509250925092565b5f60208284031215611f7357611f72611c8b565b5b5f611f8084828501611ebc565b91505092915050565b611f9281611df0565b82525050565b5f602082019050611fab5f830184611f89565b92915050565b611fba81611d13565b8114611fc4575f80fd5b50565b5f81359050611fd581611fb1565b92915050565b5f8060408385031215611ff157611ff0611c8b565b5b5f611ffe85828601611ebc565b925050602061200f85828601611fc7565b9150509250929050565b5f80fd5b5f80fd5b7f4e487b71000000000000000000000000000000000000000000000000000000005f52604160045260245ffd5b61205782611d88565b810181811067ffffffffffffffff8211171561207657612075612021565b5b80604052505050565b5f612088611c82565b9050612094828261204e565b919050565b5f67ffffffffffffffff8211156120b3576120b2612021565b5b6120bc82611d88565b9050602081019050919050565b828183375f83830152505050565b5f6120e96120e484612099565b61207f565b9050828152602081018484840111156121055761210461201d565b5b6121108482856120c9565b509392505050565b5f82601f83011261212c5761212b612019565b5b813561213c8482602086016120d7565b91505092915050565b5f805f806080858703121561215d5761215c611c8b565b5b5f61216a87828801611ebc565b945050602061217b87828801611ebc565b935050604061218c87828801611e0f565b925050606085013567ffffffffffffffff8111156121ad576121ac611c8f565b5b6121b987828801612118565b91505092959194509250565b5f67ffffffffffffffff8211156121df576121de612021565b5b6121e882611d88565b9050602081019050919050565b5f612207612202846121c5565b61207f565b9050828152602081018484840111156122235761222261201d565b5b61222e8482856120c9565b509392505050565b5f82601f83011261224a57612249612019565b5b813561225a8482602086016121f5565b91505092915050565b5f806040838503121561227957612278611c8b565b5b5f61228685828601611ebc565b925050602083013567ffffffffffffffff8111156122a7576122a6611c8f565b5b6122b385828601612236565b9150509250929050565b5f80604083850312156122d3576122d2611c8b565b5b5f6122e085828601611ebc565b92505060206122f185828601611ebc565b9150509250929050565b7f4e487b71000000000000000000000000000000000000000000000000000000005f52602260045260245ffd5b5f600282049050600182168061233f57607f821691505b602082108103612352576123516122fb565b5b50919050565b5f60608201905061236b5f830186611e7e565b6123786020830185611f89565b6123856040830184611e7e565b949350505050565b7f4e487b71000000000000000000000000000000000000000000000000000000005f52601160045260245ffd5b5f6123c482611df0565b91506123cf83611df0565b92508282026123dd81611df0565b915082820484148315176123f4576123f361238d565b5b5092915050565b7f57726f6e6720616d6f756e74206f662066756e64732073656e742e00000000005f82015250565b5f61242f601b83611d50565b915061243a826123fb565b602082019050919050565b5f6020820190508181035f83015261245c81612423565b9050919050565b5f61246d82611df0565b91507fffffffffffffffffffffffffffffffffffffffffffffffffffffffffffffffff820361249f5761249e61238d565b5b600182019050919050565b5f6060820190508181035f8301526124c28186611d98565b90506124d16020830185611f89565b6124de6040830184611f89565b949350505050565b5f81519050919050565b5f82825260208201905092915050565b5f61250a826124e6565b61251481856124f0565b9350612524818560208601611d60565b61252d81611d88565b840191505092915050565b5f60808201905061254b5f830187611e7e565b6125586020830186611e7e565b6125656040830185611f89565b81810360608301526125778184612500565b905095945050505050565b5f8151905061259081611cbe565b92915050565b5f602082840312156125ab576125aa611c8b565b5b5f6125b884828501612582565b91505092915050565b5f81905092915050565b5f6125d582611d46565b6125df81856125c1565b93506125ef818560208601611d60565b80840191505092915050565b5f61260682856125cb565b915061261282846125cb565b91508190509392505050565b5f819050815f5260205f209050919050565b5f6020601f8301049050919050565b5f82821b905092915050565b5f6008830261267a7fffffffffffffffffffffffffffffffffffffffffffffffffffffffffffffffff8261263f565b612684868361263f565b95508019841693508086168417925050509392505050565b5f819050919050565b5f6126bf6126ba6126b584611df0565b61269c565b611df0565b9050919050565b5f819050919050565b6126d8836126a5565b6126ec6126e4826126c6565b84845461264b565b825550505050565b5f90565b6127006126f4565b61270b8184846126cf565b505050565b5b8181101561272e576127235f826126f8565b600181019050612711565b5050565b601f821115612773576127448161261e565b61274d84612630565b8101602085101561275c578190505b61277061276885612630565b830182612710565b50505b505050565b5f82821c905092915050565b5f6127935f1984600802612778565b1980831691505092915050565b5f6127ab8383612784565b9150826002028217905092915050565b6127c482611d46565b67ffffffffffffffff8111156127dd576127dc612021565b5b6127e78254612328565b6127f2828285612732565b5f60209050601f831160018114612823575f8415612811578287015190505b61281b85826127a0565b865550612882565b601f1984166128318661261e565b5f5b8281101561285857848901518255600182019150602085019450602081019050612833565b868310156128755784890151612871601f891682612784565b8355505b6001600288020188555050505b505050505050565b5f60408201905061289d5f830185611e7e565b6128aa6020830184611f89565b9392505050565b7f4e487b71000000000000000000000000000000000000000000000000000000005f52601260045260245ffdfea264697066735822122021e8b6f33fee9e7843224583225679584677bab8c58a011caca8e03732baa13a64736f6c63430008150033",
  "immutableReferences": {},
  "source": "// SPDX-License-Identifier: MIT\r\n// Compatible with OpenZeppelin Contracts ^5.0.0\r\npragma solidity ^0.8.21;\r\n\r\nimport {ERC721} from \"@openzeppelin/contracts/token/ERC721/ERC721.sol\";\r\nimport {ERC721URIStorage} from \"@openzeppelin/contracts/token/ERC721/extensions/ERC721URIStorage.sol\";\r\nimport {Ownable} from \"@openzeppelin/contracts/access/Ownable.sol\";\r\n\r\nimport \"@ganache/console.log/console.sol\";\r\n\r\ncontract ShoeTest is ERC721, ERC721URIStorage, Ownable {\r\n    uint256 private _nextTokenId;\r\n\r\n    constructor()\r\n        ERC721(\"ShoeTest\", \"STK\")\r\n        Ownable(msg.sender)\r\n    {}\r\n\r\n    function _baseURI() internal pure override returns (string memory) {\r\n        return \"https://www.jsonkeeper.com/b/\";\r\n    }\r\n\r\n     //this dummy function is for testing out how console logs works in development after migrating the contract\r\n    function buyToken () public payable{\r\n     uint256 tokenId = _nextTokenId;\r\n     console.log(\"got here-->\", tokenId, msg.value);\r\n     require(msg.value == tokenId * 0.1 ether, \"Wrong amount of funds sent.\");\r\n     _nextTokenId++;\r\n\r\n      _safeMint(msg.sender, tokenId);\r\n    }\r\n\r\n    function safeMint(address to, string memory uri) public onlyOwner {\r\n        uint256 tokenId = _nextTokenId++;\r\n        _safeMint(to, tokenId);\r\n        _setTokenURI(tokenId, uri);\r\n    }\r\n\r\n    // The following functions are overrides required by Solidity.\r\n\r\n    function tokenURI(uint256 tokenId)\r\n        public\r\n        view\r\n        override(ERC721, ERC721URIStorage)\r\n        returns (string memory)\r\n    {\r\n        return super.tokenURI(tokenId);\r\n    }\r\n\r\n    function supportsInterface(bytes4 interfaceId)\r\n        public\r\n        view\r\n        override(ERC721, ERC721URIStorage)\r\n        returns (bool)\r\n    {\r\n        return super.supportsInterface(interfaceId);\r\n    }\r\n}",
  "sourcePath": "C:\\xampp\\htdocs\\nft-projects-suite\\truffle\\contracts\\NftShoeTest.sol",
  "compiler": {
    "name": "solc",
    "version": "0.8.21+commit.d9974bed.Emscripten.clang"
  },
  "schemaVersion": "3.4.16",
  "updatedAt": "2024-12-21T09:24:42.695Z",
  "networkType": "ethereum",
  "devdoc": {
    "errors": {
      "ERC721IncorrectOwner(address,uint256,address)": [
        {
          "details": "Indicates an error related to the ownership over a particular token. Used in transfers.",
          "params": {
            "owner": "Address of the current owner of a token.",
            "sender": "Address whose tokens are being transferred.",
            "tokenId": "Identifier number of a token."
          }
        }
      ],
      "ERC721InsufficientApproval(address,uint256)": [
        {
          "details": "Indicates a failure with the `operator`s approval. Used in transfers.",
          "params": {
            "operator": "Address that may be allowed to operate on tokens without being their owner.",
            "tokenId": "Identifier number of a token."
          }
        }
      ],
      "ERC721InvalidApprover(address)": [
        {
          "details": "Indicates a failure with the `approver` of a token to be approved. Used in approvals.",
          "params": {
            "approver": "Address initiating an approval operation."
          }
        }
      ],
      "ERC721InvalidOperator(address)": [
        {
          "details": "Indicates a failure with the `operator` to be approved. Used in approvals.",
          "params": {
            "operator": "Address that may be allowed to operate on tokens without being their owner."
          }
        }
      ],
      "ERC721InvalidOwner(address)": [
        {
          "details": "Indicates that an address can't be an owner. For example, `address(0)` is a forbidden owner in ERC-20. Used in balance queries.",
          "params": {
            "owner": "Address of the current owner of a token."
          }
        }
      ],
      "ERC721InvalidReceiver(address)": [
        {
          "details": "Indicates a failure with the token `receiver`. Used in transfers.",
          "params": {
            "receiver": "Address to which tokens are being transferred."
          }
        }
      ],
      "ERC721InvalidSender(address)": [
        {
          "details": "Indicates a failure with the token `sender`. Used in transfers.",
          "params": {
            "sender": "Address whose tokens are being transferred."
          }
        }
      ],
      "ERC721NonexistentToken(uint256)": [
        {
          "details": "Indicates a `tokenId` whose `owner` is the zero address.",
          "params": {
            "tokenId": "Identifier number of a token."
          }
        }
      ],
      "OwnableInvalidOwner(address)": [
        {
          "details": "The owner is not a valid owner account. (eg. `address(0)`)"
        }
      ],
      "OwnableUnauthorizedAccount(address)": [
        {
          "details": "The caller account is not authorized to perform an operation."
        }
      ]
    },
    "events": {
      "Approval(address,address,uint256)": {
        "details": "Emitted when `owner` enables `approved` to manage the `tokenId` token."
      },
      "ApprovalForAll(address,address,bool)": {
        "details": "Emitted when `owner` enables or disables (`approved`) `operator` to manage all of its assets."
      },
      "BatchMetadataUpdate(uint256,uint256)": {
        "details": "This event emits when the metadata of a range of tokens is changed. So that the third-party platforms such as NFT market could timely update the images and related attributes of the NFTs."
      },
      "MetadataUpdate(uint256)": {
        "details": "This event emits when the metadata of a token is changed. So that the third-party platforms such as NFT market could timely update the images and related attributes of the NFT."
      },
      "Transfer(address,address,uint256)": {
        "details": "Emitted when `tokenId` token is transferred from `from` to `to`."
      }
    },
    "kind": "dev",
    "methods": {
      "approve(address,uint256)": {
        "details": "See {IERC721-approve}."
      },
      "balanceOf(address)": {
        "details": "See {IERC721-balanceOf}."
      },
      "getApproved(uint256)": {
        "details": "See {IERC721-getApproved}."
      },
      "isApprovedForAll(address,address)": {
        "details": "See {IERC721-isApprovedForAll}."
      },
      "name()": {
        "details": "See {IERC721Metadata-name}."
      },
      "owner()": {
        "details": "Returns the address of the current owner."
      },
      "ownerOf(uint256)": {
        "details": "See {IERC721-ownerOf}."
      },
      "renounceOwnership()": {
        "details": "Leaves the contract without owner. It will not be possible to call `onlyOwner` functions. Can only be called by the current owner. NOTE: Renouncing ownership will leave the contract without an owner, thereby disabling any functionality that is only available to the owner."
      },
      "safeTransferFrom(address,address,uint256)": {
        "details": "See {IERC721-safeTransferFrom}."
      },
      "safeTransferFrom(address,address,uint256,bytes)": {
        "details": "See {IERC721-safeTransferFrom}."
      },
      "setApprovalForAll(address,bool)": {
        "details": "See {IERC721-setApprovalForAll}."
      },
      "symbol()": {
        "details": "See {IERC721Metadata-symbol}."
      },
      "transferFrom(address,address,uint256)": {
        "details": "See {IERC721-transferFrom}."
      },
      "transferOwnership(address)": {
        "details": "Transfers ownership of the contract to a new account (`newOwner`). Can only be called by the current owner."
      }
    },
    "version": 1
  },
  "userdoc": {
    "kind": "user",
    "methods": {},
    "version": 1
  }
}